{
  "contractName": "NFe",
  "abi": [
    {
      "inputs": [
        {
          "name": "a",
          "type": "address"
        }
      ],
      "payable": false,
      "stateMutability": "nonpayable",
      "type": "constructor"
    },
    {
      "anonymous": false,
      "inputs": [
        {
          "indexed": false,
          "name": "data",
          "type": "bytes32"
        },
        {
          "indexed": false,
          "name": "signature",
          "type": "bytes"
        },
        {
          "indexed": true,
          "name": "signer",
          "type": "address"
        }
      ],
      "name": "NFeSigned",
      "type": "event"
    },
    {
      "constant": false,
      "inputs": [
        {
          "name": "a",
          "type": "address"
        },
        {
          "name": "d",
          "type": "bytes32"
        },
        {
          "name": "s",
          "type": "bytes"
        }
      ],
      "name": "sign",
      "outputs": [],
      "payable": false,
      "stateMutability": "nonpayable",
      "type": "function"
    },
    {
      "constant": true,
      "inputs": [],
      "name": "getSigner",
      "outputs": [
        {
          "name": "",
          "type": "address"
        }
      ],
      "payable": false,
      "stateMutability": "view",
      "type": "function"
    },
    {
      "constant": true,
      "inputs": [],
      "name": "getData",
      "outputs": [
        {
          "name": "",
          "type": "bytes32"
        }
      ],
      "payable": false,
      "stateMutability": "view",
      "type": "function"
    },
    {
      "constant": true,
      "inputs": [],
      "name": "getSignature",
      "outputs": [
        {
          "name": "",
          "type": "bytes"
        }
      ],
      "payable": false,
      "stateMutability": "view",
      "type": "function"
    }
  ],
  "bytecode": "0x608060405234801561001057600080fd5b506040516020806108c58339810180604052602081101561003057600080fd5b810190808051906020019092919050505080600260006101000a81548173ffffffffffffffffffffffffffffffffffffffff021916908373ffffffffffffffffffffffffffffffffffffffff16021790555050610833806100926000396000f3fe608060405234801561001057600080fd5b506004361061004c5760003560e01c80632cde2bd7146100515780633bc5de30146101365780637ac3c02f146101545780638a4e37691461019e575b600080fd5b6101346004803603606081101561006757600080fd5b81019080803573ffffffffffffffffffffffffffffffffffffffff16906020019092919080359060200190929190803590602001906401000000008111156100ae57600080fd5b8201836020820111156100c057600080fd5b803590602001918460018302840111640100000000831117156100e257600080fd5b91908080601f016020809104026020016040519081016040528093929190818152602001838380828437600081840152601f19601f820116905080830192505050505050509192919290505050610221565b005b61013e61063b565b6040518082815260200191505060405180910390f35b61015c610644565b604051808273ffffffffffffffffffffffffffffffffffffffff1673ffffffffffffffffffffffffffffffffffffffff16815260200191505060405180910390f35b6101a661066e565b6040518080602001828103825283818151815260200191508051906020019080838360005b838110156101e65780820151818401526020810190506101cb565b50505050905090810190601f1680156102135780820380516001836020036101000a031916815260200191505b509250505060405180910390f35b82600260009054906101000a900473ffffffffffffffffffffffffffffffffffffffff1673ffffffffffffffffffffffffffffffffffffffff168173ffffffffffffffffffffffffffffffffffffffff16146102c8576040517f08c379a00000000000000000000000000000000000000000000000000000000081526004018080602001828103825260238152602001806107b66023913960400191505060405180910390fd5b60006040518060400160405280601c81526020017f19457468657265756d205369676e6564204d6573736167653a0a333200000000815250846040516020018083805190602001908083835b602083106103375780518252602082019150602081019050602083039250610314565b6001836020036101000a03801982511681845116808217855250505050505090500182815260200192505050604051602081830303815290604052805190602001209050600260009054906101000a900473ffffffffffffffffffffffffffffffffffffffff1673ffffffffffffffffffffffffffffffffffffffff168173__SignatureResolver_____________________6319045a259091866040518363ffffffff1660e01b81526004018083815260200180602001828103825283818151815260200191508051906020019080838360005b8381101561042757808201518184015260208101905061040c565b50505050905090810190601f1680156104545780820380516001836020036101000a031916815260200191505b50935050505060206040518083038186803b15801561047257600080fd5b505af4158015610486573d6000803e3d6000fd5b505050506040513d602081101561049c57600080fd5b810190808051906020019092919050505073ffffffffffffffffffffffffffffffffffffffff1614610519576040517f08c379a000000000000000000000000000000000000000000000000000000000815260040180806020018281038252602f8152602001806107d9602f913960400191505060405180910390fd5b836000819055508260019080519060200190610536929190610710565b50600260009054906101000a900473ffffffffffffffffffffffffffffffffffffffff1673ffffffffffffffffffffffffffffffffffffffff167fd5485b3d201c65f58e692ce837774606333ff19aa7b92667cbd17502e651bfc6600054600160405180838152602001806020018281038252838181546001816001161561010002031660029004815260200191508054600181600116156101000203166002900480156106255780601f106105fa57610100808354040283529160200191610625565b820191906000526020600020905b81548152906001019060200180831161060857829003601f168201915b5050935050505060405180910390a25050505050565b60008054905090565b6000600260009054906101000a900473ffffffffffffffffffffffffffffffffffffffff16905090565b606060018054600181600116156101000203166002900480601f0160208091040260200160405190810160405280929190818152602001828054600181600116156101000203166002900480156107065780601f106106db57610100808354040283529160200191610706565b820191906000526020600020905b8154815290600101906020018083116106e957829003601f168201915b5050505050905090565b828054600181600116156101000203166002900490600052602060002090601f016020900481019282601f1061075157805160ff191683800117855561077f565b8280016001018555821561077f579182015b8281111561077e578251825591602001919060010190610763565b5b50905061078c9190610790565b5090565b6107b291905b808211156107ae576000816000905550600101610796565b5090565b9056fe41646472657373206973206e6f7420616e20617574686f72697a6564207369676e65724d657373616765207369676e657220646966666572656e742066726f6d20617574686f72697a6564207369676e6572a165627a7a72305820f20c215a28f7dcfa32c23a10c0771d42386d9403b7c0436dfdd3ac4d9ffb03bf0029",
  "source": "pragma solidity ^0.5.0;\n\nimport \"./SignatureResolver.sol\";\n\ncontract NFe {\n\tbytes32 data;\n\tbytes signature;\n\taddress signer;\n\n\tbytes constant ETH_PREFIX = \"\\x19Ethereum Signed Message:\\n32\";\n\n\tusing SignatureResolver for bytes32;\n\tevent NFeSigned(bytes32 data, bytes signature, address indexed signer);\n\n\tmodifier onlySigner(address a) {\n\t\trequire(a == signer, \"Address is not an authorized signer\");\n\t\t_;\n\t}\n\n\tconstructor(address a) public {\n\t\tsigner = a;\n\t}\n\n\tfunction sign(address a, bytes32 d, bytes memory s) \n\t\tpublic\n\t\tonlySigner(a)\n\t{\n\t\tbytes32 dd = keccak256(abi.encodePacked(ETH_PREFIX, d));\n\t\trequire(dd.recover(s) == signer, \"Message signer different from authorized signer\");\n\n\t\tdata = d;\n\t\tsignature = s;\n\n\t\temit NFeSigned(data, signature, signer);\n\t}\n\n\tfunction getSigner() public view returns(address) {\n\t\treturn signer;\n\t}\n\n\tfunction getData() public view returns(bytes32) {\n\t\treturn data;\n\t}\n\n\tfunction getSignature() public view returns(bytes memory) {\n\t\treturn signature;\n\t}\n}",
  "sourcePath": "/Users/faustovanin/Projects/OnePercent/dev/sicredi/contracts/NFe.sol",
  "compiler": {
    "name": "solc",
    "version": "0.5.8+commit.23d335f2.Emscripten.clang"
  },
  "schemaVersion": "3.0.11",
  "updatedAt": "2019-08-27T03:17:56.871Z",
  "devdoc": {
    "methods": {}
  },
  "userdoc": {
    "methods": {}
  }
}