{
  "contractName": "SignatureResolver",
  "abi": [
    {
      "constant": true,
      "inputs": [
        {
          "name": "_hash",
          "type": "bytes32"
        },
        {
          "name": "_sig",
          "type": "bytes"
        }
      ],
      "name": "recover",
      "outputs": [
        {
          "name": "",
          "type": "address"
        }
      ],
      "payable": false,
      "stateMutability": "pure",
      "type": "function"
    }
  ],
  "bytecode": "0x61024d610026600b82828239805160001a60731461001957fe5b30600052607381538281f3fe73000000000000000000000000000000000000000030146080604052600436106100355760003560e01c806319045a251461003a575b600080fd5b6100fd6004803603604081101561005057600080fd5b81019080803590602001909291908035906020019064010000000081111561007757600080fd5b82018360208201111561008957600080fd5b803590602001918460018302840111640100000000831117156100ab57600080fd5b91908080601f016020809104026020016040519081016040528093929190818152602001838380828437600081840152601f19601f82011690508083019250505050505050919291929050505061013f565b604051808273ffffffffffffffffffffffffffffffffffffffff1673ffffffffffffffffffffffffffffffffffffffff16815260200191505060405180910390f35b600080600080604185511461015a576000935050505061021b565b6020850151925060408501519150606085015160001a9050601b8160ff16101561018557601b810190505b601b8160ff161415801561019d5750601c8160ff1614155b156101ae576000935050505061021b565b60018682858560405160008152602001604052604051808581526020018460ff1660ff1681526020018381526020018281526020019450505050506020604051602081039080840390855afa15801561020b573d6000803e3d6000fd5b5050506020604051035193505050505b9291505056fea165627a7a72305820b78c8c6691a444d78365aac49bcf03eea057341d5cbb5a7462e8951e299ca3a70029",
  "source": "pragma solidity ^0.5.0;\n\nlibrary SignatureResolver {\n\tfunction recover(bytes32 _hash, bytes memory _sig)\n\t    public\n\t    pure\n\t    returns (address)\n\t  {\n\t    bytes32 r;\n\t    bytes32 s;\n\t    uint8 v;\n\n\t    // Check the signature length\n\t    if (_sig.length != 65) {\n\t      return (address(0));\n\t    }\n\n\t    // Divide the signature in r, s and v variables\n\t    // ecrecover takes the signature parameters, and the only way to get them\n\t    // currently is to use assembly.\n\t    // solium-disable-next-line security/no-inline-assembly\n\t    assembly {\n\t      r := mload(add(_sig, 32))\n\t      s := mload(add(_sig, 64))\n\t      v := byte(0, mload(add(_sig, 96)))\n\t    }\n\n\t    // Version of signature should be 27 or 28, but 0 and 1 are also possible versions\n\t    if (v < 27) {\n\t      v += 27;\n\t    }\n\n\t    // If the version is correct return the signer address\n\t    if (v != 27 && v != 28) {\n\t      return (address(0));\n\t    } else {\n\t      // solium-disable-next-line arg-overflow\n\t      return ecrecover(_hash, v, r, s);\n\t    }\n\t  }\n}",
  "sourcePath": "/Users/faustovanin/Projects/OnePercent/dev/sicredi/contracts/SignatureResolver.sol",
  "compiler": {
    "name": "solc",
    "version": "0.5.8+commit.23d335f2.Emscripten.clang"
  },
  "schemaVersion": "3.0.11",
  "updatedAt": "2019-08-27T03:17:56.872Z",
  "devdoc": {
    "methods": {}
  },
  "userdoc": {
    "methods": {}
  }
}